{
  "contractName": "NumberStorage",
  "abi": [
    {
      "inputs": [],
      "stateMutability": "nonpayable",
      "type": "constructor"
    },
    {
      "anonymous": false,
      "inputs": [
        {
          "indexed": true,
          "internalType": "uint256",
          "name": "currentNumber",
          "type": "uint256"
        },
        {
          "indexed": true,
          "internalType": "address",
          "name": "sender",
          "type": "address"
        }
      ],
      "name": "CurrentValue",
      "type": "event"
    },
    {
      "inputs": [],
      "name": "savedNumber",
      "outputs": [
        {
          "internalType": "uint256",
          "name": "",
          "type": "uint256"
        }
      ],
      "stateMutability": "view",
      "type": "function",
      "constant": true
    },
    {
      "inputs": [
        {
          "internalType": "uint256",
          "name": "_number",
          "type": "uint256"
        }
      ],
      "name": "changeNumber",
      "outputs": [],
      "stateMutability": "nonpayable",
      "type": "function"
    }
  ],
  "bytecode": "0x608060405234801561001057600080fd5b50600a60008190555061018a806100286000396000f3fe608060405234801561001057600080fd5b50600436106100365760003560e01c806307391dd61461003b57806307604a7e14610057575b600080fd5b610055600480360381019061005091906100e0565b610075565b005b61005f6100c5565b60405161006c9190610118565b60405180910390f35b806000819055503373ffffffffffffffffffffffffffffffffffffffff166000547f6629984ae410cc2d642614aa4f879d438968b7e6a87acd9172577073fff9d6e660405160405180910390a350565b60005481565b6000813590506100da8161013d565b92915050565b6000602082840312156100f257600080fd5b6000610100848285016100cb565b91505092915050565b61011281610133565b82525050565b600060208201905061012d6000830184610109565b92915050565b6000819050919050565b61014681610133565b811461015157600080fd5b5056fea2646970667358221220bbc48c852c8f1d850f9a32d6b07e48be5370c27c8f0a9962754314726930076e64736f6c63430008000033",
  "immutableReferences": {},
  "source": "pragma solidity ^0.8.0;\r\n\r\ncontract NumberStorage {\r\n  uint public savedNumber;\r\n\r\n  event CurrentValue(\r\n    uint indexed currentNumber,\r\n    address indexed sender\r\n  );\r\n\r\n  constructor() public {\r\n    savedNumber = 10;\r\n  }\r\n\r\n  function changeNumber(uint _number) public {\r\n    savedNumber = _number;\r\n    emit CurrentValue(savedNumber, msg.sender);\r\n  }\r\n}\r\n",
  "sourcePath": "C:/Users/jdink/Desktop/development/ethereum-event-listening/contracts/NumberStorage.sol",
  "compiler": {
    "name": "solc",
    "version": "0.8.0+commit.c7dfd78e.Emscripten.clang"
  },
  "schemaVersion": "3.3.3",
  "updatedAt": "2020-12-28T03:14:43.259Z",
  "networkType": "ethereum",
  "devdoc": {
    "kind": "dev",
    "methods": {},
    "version": 1
  },
  "userdoc": {
    "kind": "user",
    "methods": {},
    "version": 1
  }
}